{
  "contractName": "Adoption",
  "abi": [
    {
      "inputs": [],
      "stateMutability": "nonpayable",
      "type": "constructor"
    },
    {
      "anonymous": false,
      "inputs": [
        {
          "indexed": false,
          "internalType": "address",
          "name": "from",
          "type": "address"
        },
        {
          "indexed": false,
          "internalType": "uint256",
          "name": "_petId",
          "type": "uint256"
        }
      ],
      "name": "RandomPet",
      "type": "event"
    },
    {
      "inputs": [
        {
          "internalType": "uint256",
          "name": "",
          "type": "uint256"
        }
      ],
      "name": "adopters",
      "outputs": [
        {
          "internalType": "address",
          "name": "",
          "type": "address"
        }
      ],
      "stateMutability": "view",
      "type": "function"
    },
    {
      "inputs": [],
      "name": "owner",
      "outputs": [
        {
          "internalType": "address",
          "name": "",
          "type": "address"
        }
      ],
      "stateMutability": "view",
      "type": "function"
    },
    {
      "inputs": [],
      "name": "getOwner",
      "outputs": [
        {
          "internalType": "address",
          "name": "",
          "type": "address"
        }
      ],
      "stateMutability": "view",
      "type": "function"
    },
    {
      "inputs": [],
      "name": "getBalance",
      "outputs": [
        {
          "internalType": "uint256",
          "name": "",
          "type": "uint256"
        }
      ],
      "stateMutability": "view",
      "type": "function"
    },
    {
      "inputs": [
        {
          "internalType": "uint256",
          "name": "petId",
          "type": "uint256"
        }
      ],
      "name": "adopt",
      "outputs": [
        {
          "internalType": "uint256",
          "name": "",
          "type": "uint256"
        }
      ],
      "stateMutability": "nonpayable",
      "type": "function"
    },
    {
      "inputs": [],
      "name": "getAdopters",
      "outputs": [
        {
          "internalType": "address[16]",
          "name": "",
          "type": "address[16]"
        }
      ],
      "stateMutability": "view",
      "type": "function"
    },
    {
      "inputs": [
        {
          "internalType": "uint256",
          "name": "nounce",
          "type": "uint256"
        }
      ],
      "name": "randomPet",
      "outputs": [],
      "stateMutability": "nonpayable",
      "type": "function"
    }
  ],
  "bytecode": "0x608060405234801561001057600080fd5b5033601060006101000a81548173ffffffffffffffffffffffffffffffffffffffff021916908373ffffffffffffffffffffffffffffffffffffffff1602179055506108f3806100616000396000f3fe608060405234801561001057600080fd5b506004361061007d5760003560e01c80638588b2c51161005b5780638588b2c5146100ee578063893d20e81461011e5780638da5cb5b1461013c578063f25dbc721461015a5761007d565b806312065fe0146100825780633de4eb17146100a057806343ae80d3146100be575b600080fd5b61008a610176565b60405161009791906104d0565b60405180910390f35b6100a861017e565b6040516100b591906105c8565b60405180910390f35b6100d860048036038101906100d39190610615565b6101ff565b6040516100e59190610651565b60405180910390f35b61010860048036038101906101039190610615565b610235565b60405161011591906104d0565b60405180910390f35b6101266102ad565b6040516101339190610651565b60405180910390f35b6101446102d7565b6040516101519190610651565b60405180910390f35b610174600480360381019061016f9190610615565b6102fd565b005b600047905090565b610186610494565b60006010806020026040519081016040528092919082601080156101f5576020028201915b8160009054906101000a900473ffffffffffffffffffffffffffffffffffffffff1673ffffffffffffffffffffffffffffffffffffffff16815260200190600101908083116101ab575b5050505050905090565b6000816010811061020f57600080fd5b016000915054906101000a900473ffffffffffffffffffffffffffffffffffffffff1681565b60008082101580156102485750600f8211155b61025157600080fd5b33600083601081106102665761026561066c565b5b0160006101000a81548173ffffffffffffffffffffffffffffffffffffffff021916908373ffffffffffffffffffffffffffffffffffffffff160217905550819050919050565b6000601060009054906101000a900473ffffffffffffffffffffffffffffffffffffffff16905090565b601060009054906101000a900473ffffffffffffffffffffffffffffffffffffffff1681565b600061030a601083610451565b905060008290505b600073ffffffffffffffffffffffffffffffffffffffff166000836010811061033e5761033d61066c565b5b0160009054906101000a900473ffffffffffffffffffffffffffffffffffffffff1673ffffffffffffffffffffffffffffffffffffffff161415801561039057508260108261038d91906106ca565b14155b156103b6576001836103a291906106ca565b92506103af601084610451565b9150610312565b826010826103c491906106ca565b14610411576103d282610235565b507fe6352de0e33f35e56c7d5b17303b67ad358e008dcd6034626f88a79a80aaa08c3383604051610404929190610720565b60405180910390a161044c565b7fe6352de0e33f35e56c7d5b17303b67ad358e008dcd6034626f88a79a80aaa08c33601160405161044392919061078e565b60405180910390a15b505050565b60008242338460405160200161046993929190610820565b6040516020818303038152906040528051906020012060001c61048c919061088c565b905092915050565b604051806102000160405280601090602082028036833780820191505090505090565b6000819050919050565b6104ca816104b7565b82525050565b60006020820190506104e560008301846104c1565b92915050565b600060109050919050565b600081905092915050565b6000819050919050565b600073ffffffffffffffffffffffffffffffffffffffff82169050919050565b60006105368261050b565b9050919050565b6105468161052b565b82525050565b6000610558838361053d565b60208301905092915050565b6000602082019050919050565b61057a816104eb565b61058481846104f6565b925061058f82610501565b8060005b838110156105c05781516105a7878261054c565b96506105b283610564565b925050600181019050610593565b505050505050565b6000610200820190506105de6000830184610571565b92915050565b600080fd5b6105f2816104b7565b81146105fd57600080fd5b50565b60008135905061060f816105e9565b92915050565b60006020828403121561062b5761062a6105e4565b5b600061063984828501610600565b91505092915050565b61064b8161052b565b82525050565b60006020820190506106666000830184610642565b92915050565b7f4e487b7100000000000000000000000000000000000000000000000000000000600052603260045260246000fd5b7f4e487b7100000000000000000000000000000000000000000000000000000000600052601160045260246000fd5b60006106d5826104b7565b91506106e0836104b7565b9250827fffffffffffffffffffffffffffffffffffffffffffffffffffffffffffffffff038211156107155761071461069b565b5b828201905092915050565b60006040820190506107356000830185610642565b61074260208301846104c1565b9392505050565b6000819050919050565b6000819050919050565b600061077861077361076e84610749565b610753565b6104b7565b9050919050565b6107888161075d565b82525050565b60006040820190506107a36000830185610642565b6107b0602083018461077f565b9392505050565b6000819050919050565b6107d26107cd826104b7565b6107b7565b82525050565b60008160601b9050919050565b60006107f0826107d8565b9050919050565b6000610802826107e5565b9050919050565b61081a6108158261052b565b6107f7565b82525050565b600061082c82866107c1565b60208201915061083c8285610809565b60148201915061084c82846107c1565b602082019150819050949350505050565b7f4e487b7100000000000000000000000000000000000000000000000000000000600052601260045260246000fd5b6000610897826104b7565b91506108a2836104b7565b9250826108b2576108b161085d565b5b82820690509291505056fea26469706673582212203c450ac9c4d662f9def0a8bc864e36d28eb1894da6684a437c9c1ea615d245d964736f6c634300080d0033",
  "immutableReferences": {},
  "source": "// required solidity version 0.5.0 or newer\r\npragma solidity >=0.8.13;\r\n\r\ncontract Adoption {\r\n    // create address type variable name adopters\r\n    address[16] public adopters;\r\n\r\n    address public owner;\r\n    \r\n    // event\r\n    event RandomPet(\r\n        address from,\r\n        uint _petId\r\n    );\r\n\r\n    // Defining a constructor\r\n\tconstructor() public{\r\n\t\towner=msg.sender;\r\n\t}\r\n\r\n\t// Function to get\r\n\t// address of owner\r\n\tfunction getOwner(\r\n\t) public view returns (address) {\t\r\n\t\treturn owner;\r\n\t}\r\n\r\n\t// Function to return\r\n\t// current balance of owner\r\n\tfunction getBalance(\r\n\t) public view returns(uint){\r\n\t\treturn address(this).balance;\r\n\t} \r\n\r\n    // Adopting a pet\r\n    function adopt(uint petId) public returns (uint) {\r\n        // check rule before\r\n        require(petId >= 0 && petId <= 15);\r\n\r\n        // msg.sender is address of person or smart contract that call function\r\n        adopters[petId] = msg.sender;\r\n\r\n        return petId;\r\n    }\r\n\r\n    // Retrieving the adopters\r\n    // view mean this function will not change state\r\n    // memory gives the data location for the variable\r\n    function getAdopters() public view returns (address[16] memory) {\r\n        return adopters;\r\n    }\r\n\r\n    // random unadopt pet\r\n    function randomPet(uint nounce) public {\r\n        uint randomPetIndex = random(16, nounce);\r\n        uint oldnounce = nounce;\r\n        // re-random if pet already adopted\r\n        while(adopters[randomPetIndex] != address(0) && oldnounce + 16 != nounce){\r\n            nounce = nounce + 1;\r\n            randomPetIndex = random(16, nounce); \r\n        }\r\n\r\n        if(oldnounce + 16 != nounce){\r\n            adopt(randomPetIndex);\r\n            emit RandomPet(msg.sender, randomPetIndex);\r\n        }\r\n        else{\r\n            emit RandomPet(msg.sender, 17);\r\n        }\r\n    }\r\n\r\n    // util: random\r\n    function random(uint max, uint nounce) private view returns(uint){\r\n        return uint(keccak256(abi.encodePacked(block.timestamp, msg.sender, nounce))) % max;\r\n    }\r\n\r\n}",
  "sourcePath": "C:\\Users\\pacha\\Documents\\GitHub\\web3-mini-project\\contracts\\Adoption.sol",
  "compiler": {
    "name": "solc",
    "version": "0.8.13+commit.abaa5c0e.Emscripten.clang"
  },
  "schemaVersion": "3.4.7",
  "updatedAt": "2022-04-28T14:51:38.149Z",
  "devdoc": {
    "kind": "dev",
    "methods": {},
    "version": 1
  },
  "userdoc": {
    "kind": "user",
    "methods": {},
    "version": 1
  }
}