{
  "contractName": "Adoption",
  "abi": [
    {
      "constant": true,
      "inputs": [
        {
          "internalType": "uint256",
          "name": "",
          "type": "uint256"
        }
      ],
      "name": "adopters",
      "outputs": [
        {
          "internalType": "address",
          "name": "",
          "type": "address"
        }
      ],
      "payable": false,
      "stateMutability": "view",
      "type": "function"
    },
    {
      "constant": false,
      "inputs": [
        {
          "internalType": "uint256",
          "name": "petId",
          "type": "uint256"
        }
      ],
      "name": "adopt",
      "outputs": [
        {
          "internalType": "uint256",
          "name": "",
          "type": "uint256"
        }
      ],
      "payable": false,
      "stateMutability": "nonpayable",
      "type": "function"
    },
    {
      "constant": true,
      "inputs": [],
      "name": "getAdopters",
      "outputs": [
        {
          "internalType": "address[16]",
          "name": "",
          "type": "address[16]"
        }
      ],
      "payable": false,
      "stateMutability": "view",
      "type": "function"
    },
    {
      "constant": true,
      "inputs": [],
      "name": "getPets",
      "outputs": [
        {
          "internalType": "uint256[]",
          "name": "",
          "type": "uint256[]"
        }
      ],
      "payable": false,
      "stateMutability": "view",
      "type": "function"
    }
  ],
  "bytecode": "0x608060405234801561001057600080fd5b50610407806100206000396000f3fe608060405234801561001057600080fd5b506004361061004c5760003560e01c80633de4eb171461005157806343ae80d3146100975780636d71ad38146101055780638588b2c514610164575b600080fd5b6100596101a6565b6040518082601060200280838360005b83811015610084578082015181840152602081019050610069565b5050505090500191505060405180910390f35b6100c3600480360360208110156100ad57600080fd5b8101908080359060200190929190505050610227565b604051808273ffffffffffffffffffffffffffffffffffffffff1673ffffffffffffffffffffffffffffffffffffffff16815260200191505060405180910390f35b61010d61025a565b6040518080602001828103825283818151815260200191508051906020019060200280838360005b83811015610150578082015181840152602081019050610135565b505050509050019250505060405180910390f35b6101906004803603602081101561017a57600080fd5b810190808035906020019092919050505061033e565b6040518082815260200191505060405180910390f35b6101ae6103af565b600060108060200260405190810160405280929190826010801561021d576020028201915b8160009054906101000a900473ffffffffffffffffffffffffffffffffffffffff1673ffffffffffffffffffffffffffffffffffffffff16815260200190600101908083116101d3575b5050505050905090565b6000816010811061023457fe5b016000915054906101000a900473ffffffffffffffffffffffffffffffffffffffff1681565b606080601060405190808252806020026020018201604052801561028d5781602001602082028038833980820191505090505b509050600080905060008090505b6010811015610335573373ffffffffffffffffffffffffffffffffffffffff16600082601081106102c857fe5b0160009054906101000a900473ffffffffffffffffffffffffffffffffffffffff1673ffffffffffffffffffffffffffffffffffffffff161415610328578083838151811061031357fe5b60200260200101818152505081806001019250505b808060010191505061029b565b50819250505090565b60008082101580156103515750600f8211155b61035a57600080fd5b336000836010811061036857fe5b0160006101000a81548173ffffffffffffffffffffffffffffffffffffffff021916908373ffffffffffffffffffffffffffffffffffffffff160217905550819050919050565b60405180610200016040528060109060208202803883398082019150509050509056fea265627a7a72315820e435c39161911c03849d2ab80896e67e0a2237069300544eccb0bb13339a867a64736f6c63430005100032",
  "source": "// required solidity version 0.5.0 or newer\r\npragma solidity ^0.5.0;\r\n\r\ncontract Adoption {\r\n    // create address type variable name adopters\r\n    address[16] public adopters;\r\n\r\n    // Adopting a pet\r\n    function adopt(uint petId) public returns (uint) {\r\n        // check rule before\r\n        require(petId >= 0 && petId <= 15);\r\n\r\n        // msg.sender is address of person or smart contract that call function\r\n        adopters[petId] = msg.sender;\r\n\r\n        return petId;\r\n    }\r\n\r\n    // Retrieving the adopters\r\n    // view mean this function will not change state\r\n    // memory gives the data location for the variable\r\n    function getAdopters() public view returns (address[16] memory) {\r\n        return adopters;\r\n    }\r\n\r\n    // Retrieving the pets with specific adopter\r\n    function getPets() public view returns (uint[] memory) {\r\n        // cast petList to store list of pet that owner by msg.sender (max length = 16)\r\n        uint[] memory petList = new uint[](16);\r\n        uint j = 0;\r\n        for(uint i = 0; i < 16; i++){\r\n            if(adopters[i] == msg.sender){\r\n                petList[j] = i;\r\n                j++;\r\n            }\r\n        }\r\n\r\n        // return petList\r\n        return (petList);\r\n    }\r\n}",
  "sourcePath": "C:\\Users\\pacha\\Documents\\GitHub\\web3-mini-project\\contracts\\Adoption.sol",
  "compiler": {
    "name": "solc",
    "version": "0.5.16+commit.9c3226ce.Emscripten.clang"
  },
  "schemaVersion": "3.4.7",
  "updatedAt": "2022-04-25T11:13:51.919Z",
  "devdoc": {
    "methods": {}
  },
  "userdoc": {
    "methods": {}
  }
}