{
  "contractName": "Adoption",
  "abi": [
    {
      "anonymous": false,
      "inputs": [
        {
          "indexed": false,
          "internalType": "address",
          "name": "from",
          "type": "address"
        },
        {
          "indexed": false,
          "internalType": "uint256",
          "name": "_petId",
          "type": "uint256"
        }
      ],
      "name": "RandomPet",
      "type": "event"
    },
    {
      "inputs": [
        {
          "internalType": "uint256",
          "name": "",
          "type": "uint256"
        }
      ],
      "name": "adopters",
      "outputs": [
        {
          "internalType": "address",
          "name": "",
          "type": "address"
        }
      ],
      "stateMutability": "view",
      "type": "function",
      "constant": true
    },
    {
      "inputs": [
        {
          "internalType": "uint256",
          "name": "petId",
          "type": "uint256"
        }
      ],
      "name": "adopt",
      "outputs": [
        {
          "internalType": "uint256",
          "name": "",
          "type": "uint256"
        }
      ],
      "stateMutability": "nonpayable",
      "type": "function"
    },
    {
      "inputs": [],
      "name": "getAdopters",
      "outputs": [
        {
          "internalType": "address[16]",
          "name": "",
          "type": "address[16]"
        }
      ],
      "stateMutability": "view",
      "type": "function",
      "constant": true
    },
    {
      "inputs": [
        {
          "internalType": "uint256",
          "name": "nounce",
          "type": "uint256"
        }
      ],
      "name": "randomPet",
      "outputs": [],
      "stateMutability": "nonpayable",
      "type": "function"
    }
  ],
  "bytecode": "0x608060405234801561001057600080fd5b50610810806100206000396000f3fe608060405234801561001057600080fd5b506004361061004c5760003560e01c80633de4eb171461005157806343ae80d31461006f5780638588b2c51461009f578063f25dbc72146100cf575b600080fd5b6100596100eb565b60405161006691906104b1565b60405180910390f35b61008960048036038101906100849190610508565b61016c565b6040516100969190610544565b60405180910390f35b6100b960048036038101906100b49190610508565b6101a2565b6040516100c6919061056e565b60405180910390f35b6100e960048036038101906100e49190610508565b61021a565b005b6100f36103b1565b6000601080602002604051908101604052809291908260108015610162576020028201915b8160009054906101000a900473ffffffffffffffffffffffffffffffffffffffff1673ffffffffffffffffffffffffffffffffffffffff1681526020019060010190808311610118575b5050505050905090565b6000816010811061017c57600080fd5b016000915054906101000a900473ffffffffffffffffffffffffffffffffffffffff1681565b60008082101580156101b55750600f8211155b6101be57600080fd5b33600083601081106101d3576101d2610589565b5b0160006101000a81548173ffffffffffffffffffffffffffffffffffffffff021916908373ffffffffffffffffffffffffffffffffffffffff160217905550819050919050565b600061022760108361036e565b905060008290505b600073ffffffffffffffffffffffffffffffffffffffff166000836010811061025b5761025a610589565b5b0160009054906101000a900473ffffffffffffffffffffffffffffffffffffffff1673ffffffffffffffffffffffffffffffffffffffff16141580156102ad5750826010826102aa91906105e7565b14155b156102d3576001836102bf91906105e7565b92506102cc60108461036e565b915061022f565b826010826102e191906105e7565b1461032e576102ef826101a2565b507fe6352de0e33f35e56c7d5b17303b67ad358e008dcd6034626f88a79a80aaa08c338360405161032192919061063d565b60405180910390a1610369565b7fe6352de0e33f35e56c7d5b17303b67ad358e008dcd6034626f88a79a80aaa08c3360116040516103609291906106ab565b60405180910390a15b505050565b6000824233846040516020016103869392919061073d565b6040516020818303038152906040528051906020012060001c6103a991906107a9565b905092915050565b604051806102000160405280601090602082028036833780820191505090505090565b600060109050919050565b600081905092915050565b6000819050919050565b600073ffffffffffffffffffffffffffffffffffffffff82169050919050565b600061041f826103f4565b9050919050565b61042f81610414565b82525050565b60006104418383610426565b60208301905092915050565b6000602082019050919050565b610463816103d4565b61046d81846103df565b9250610478826103ea565b8060005b838110156104a95781516104908782610435565b965061049b8361044d565b92505060018101905061047c565b505050505050565b6000610200820190506104c7600083018461045a565b92915050565b600080fd5b6000819050919050565b6104e5816104d2565b81146104f057600080fd5b50565b600081359050610502816104dc565b92915050565b60006020828403121561051e5761051d6104cd565b5b600061052c848285016104f3565b91505092915050565b61053e81610414565b82525050565b60006020820190506105596000830184610535565b92915050565b610568816104d2565b82525050565b6000602082019050610583600083018461055f565b92915050565b7f4e487b7100000000000000000000000000000000000000000000000000000000600052603260045260246000fd5b7f4e487b7100000000000000000000000000000000000000000000000000000000600052601160045260246000fd5b60006105f2826104d2565b91506105fd836104d2565b9250827fffffffffffffffffffffffffffffffffffffffffffffffffffffffffffffffff03821115610632576106316105b8565b5b828201905092915050565b60006040820190506106526000830185610535565b61065f602083018461055f565b9392505050565b6000819050919050565b6000819050919050565b600061069561069061068b84610666565b610670565b6104d2565b9050919050565b6106a58161067a565b82525050565b60006040820190506106c06000830185610535565b6106cd602083018461069c565b9392505050565b6000819050919050565b6106ef6106ea826104d2565b6106d4565b82525050565b60008160601b9050919050565b600061070d826106f5565b9050919050565b600061071f82610702565b9050919050565b61073761073282610414565b610714565b82525050565b600061074982866106de565b6020820191506107598285610726565b60148201915061076982846106de565b602082019150819050949350505050565b7f4e487b7100000000000000000000000000000000000000000000000000000000600052601260045260246000fd5b60006107b4826104d2565b91506107bf836104d2565b9250826107cf576107ce61077a565b5b82820690509291505056fea26469706673582212208bdb05ba15a8b7894afcf9b1dd06f70538ccd1f28b7f3d3ab994a03f91b0f53b64736f6c634300080d0033",
  "immutableReferences": {},
  "source": "// required solidity version 0.5.0 or newer\r\npragma solidity >=0.8.13;\r\n\r\ncontract Adoption {\r\n    // create address type variable name adopters\r\n    address[16] public adopters;\r\n\r\n    // event\r\n    event RandomPet(\r\n        address from,\r\n        uint _petId\r\n    );\r\n\r\n    // Adopting a pet\r\n    function adopt(uint petId) public returns (uint) {\r\n        // check rule before\r\n        require(petId >= 0 && petId <= 15);\r\n\r\n        // msg.sender is address of person or smart contract that call function\r\n        adopters[petId] = msg.sender;\r\n\r\n        return petId;\r\n    }\r\n\r\n    // Retrieving the adopters\r\n    // view mean this function will not change state\r\n    // memory gives the data location for the variable\r\n    function getAdopters() public view returns (address[16] memory) {\r\n        return adopters;\r\n    }\r\n\r\n    // random unadopt pet\r\n    function randomPet(uint nounce) public {\r\n        uint randomPetIndex = random(16, nounce);\r\n        uint oldnounce = nounce;\r\n        // re-random if pet already adopted\r\n        while(adopters[randomPetIndex] != address(0) && oldnounce + 16 != nounce){\r\n            nounce = nounce + 1;\r\n            randomPetIndex = random(16, nounce); \r\n        }\r\n\r\n        if(oldnounce + 16 != nounce){\r\n            adopt(randomPetIndex);\r\n            emit RandomPet(msg.sender, randomPetIndex);\r\n        }\r\n        else{\r\n            emit RandomPet(msg.sender, 17);\r\n        }\r\n    }\r\n\r\n    // util: random\r\n    function random(uint max, uint nounce) private view returns(uint){\r\n        return uint(keccak256(abi.encodePacked(block.timestamp, msg.sender, nounce))) % max;\r\n    }\r\n}",
  "sourcePath": "C:\\Users\\pacha\\Documents\\GitHub\\web3-mini-project\\contracts\\Adoption.sol",
  "compiler": {
    "name": "solc",
    "version": "0.8.13+commit.abaa5c0e.Emscripten.clang"
  },
  "schemaVersion": "3.4.7",
  "updatedAt": "2022-04-28T06:03:41.062Z",
  "networkType": "ethereum",
  "devdoc": {
    "kind": "dev",
    "methods": {},
    "version": 1
  },
  "userdoc": {
    "kind": "user",
    "methods": {},
    "version": 1
  }
}